:020000040800F2
:1000000018C000209D010008495E00089D540008AA
:10001000455E0008BD090008B97000080000000036
:100020000000000000000000000000004164000823
:10003000530D000800000000515F000843640008F1
:10004000B7010008B7010008B7010008B7010008B0
:10005000B7010008B7010008B7010008B7010008A0
:10006000B7010008B7010008B7010008B701000890
:10007000B7010008B7010008B7010008B701000880
:10008000B7010008B7010008B7010008B701000870
:10009000C1090008B7010008B7010008B70100084E
:1000A000B7010008B7010008B7010008B701000850
:1000B000B701000815650008B7010008B70100087E
:1000C000B7010008B7010008B7010008B701000830
:1000D000B7010008A9700008B7010008B7010008BF
:1000E000B7010008B7010008B7010008B701000810
:1000F000B7010008B7010008B7010008B701000800
:10010000B7010008B7010008B7010008B7010008EF
:10011000B7010008B7010008B7010008B7010008DF
:10012000B7010008B7010008190C0008290C0008E5
:10013000B7010008810F0008B7010008B7010008E7
:10014000D1090008B7010008B7010008B70100088D
:10015000B7010008B7010008390C0008B701000812
:10016000B7010008B7010008B7010008B70100088F
:10017000B7010008B7010008B7010008000000003F
:10018000B7010008B7010008DFF80CD000F048FB09
:1001900000480047D1B1000818C000200648804739
:1001A00006480047FEE7FEE7FEE7FEE7FEE7FEE75C
:1001B000FEE7FEE7FEE7FEE70165000889010008AB
:1001C0002DE9F05F0546002092469B46884606468C
:1001D000814640241BE0284641464746224600F01F
:1001E00068FA53465A46C01A914110D31146184630
:1001F000224600F04FFA2D1A67EB01084F462246BF
:100200000120002100F046FA17EB00094E41201EA4
:10021000A4F10104DFDC484631462A464346BDE8E6
:10022000F09F00000649074A0868504343F239022C
:10023000104408604008704701490860704700009A
:10024000C01300206D4EC64110B5431A934209D227
:100250008318881803E010F8011D03F8011D521ED1
:10026000F9D210BD40EA01039B0703D009E008C999
:10027000121F08C0042AFAD203E011F8013B00F86B
:10028000013B521EF9D210BDD2B201E000F8012BA1
:10029000491EFBD270470022F6E710B513460A4606
:1002A00004461946FFF7F0FF204610BD30B504465E
:1002B0000020034600E05B1C934203D2E05CCD5C6F
:1002C000401BF8D030BD2DE9FE4F804681EA030087
:1002D000C00F0C46009021F0004123F00045B8EB20
:1002E0000200A94105D24046214690461C460B46D5
:1002F000024623F00040104347D0270DC7F30A0001
:10030000C3F30A510290401A019040286BDAC3F3FC
:10031000130040F4801B0098924620B10023D2EBDA
:10032000030A63EB0B0B01985946C0F1400250469B
:1003300000F0B0F906460D4650465946019A00F0C5
:10034000C8F910EB08006141002487EA115284EAE1
:10035000E7731A4340D0009A62B3019A012A4FEA28
:10036000075215DC001B61EB02014FF0004202EA6C
:100370000752CDE90042001C41F5801132462B4660
:1003800000F0FFF903B0BDE8F08F40462146F9E7E1
:10039000001B61EB0201001C41F5801300185B415A
:1003A0002018A2F5001747EB030140EAD570B619F3
:1003B0006D4111E06D084FEA360645EAC0754FEA17
:1003C0000752001B61EB0201001C41F58011490836
:1003D0004FEA30000019514132462B4603B0BDE8C8
:1003E000F04F00F0BFB90098012240000023D0EB8D
:1003F000020263EBE073009821464FEAE074B8EB29
:10040000000061EB0401E9E783F000435BE781F062
:10041000004158E72DE9FE4F81EA030404F000444F
:1004200021F0004100944FF0000B23F0004350EA0C
:1004300001045ED052EA03045BD0C3F30A54C1F353
:100440000A552C44A4F2F3340194A0FB0254C1F3E6
:10045000130141F48011C3F3130343F4801301FB30
:10046000024400FB034E840A970A44EA815447EA97
:100470008357A4FB076802958D0A05FB07854FEAA1
:10048000932C04FB0C542705029D4FEA065847EABB
:100490001637B5EB08056EEB070C870E920E47EA90
:1004A000811742EA8312A7FB0201B6EB0B0164EB52
:1004B00000042B0D43EA0C335E1844EB1C50DA4663
:1004C0005146E7FB0201C5F313044FEA0B3343EA3D
:1004D00014534FEA0432019C43EA0603A4F10C04CE
:1004E0000294009CCDE900B400F04BF903B0BDE8E4
:1004F000F08F00200146F9E72DE9F04D81EA030471
:1005000004F0004B21F0004514464FF0000A23F0A0
:10051000004150EA050220D054EA01021DD0C5F383
:100520000A570246C5F31303C1F31300C1F30A5679
:1005300040F4801543F48013A7EB0608101BD64641
:1005400008F2FD3873EB050002D308F1010801E061
:1005500092185B41B8F1000F03DA00200146BDE8B4
:10056000F08D00204FF48011064684460EE0171BE4
:1005700073EB050705D3121B63EB050306434CEA37
:10058000010C49084FEA300092185B4150EA01071C
:10059000EDD152EA030012D082EA040083EA050199
:1005A000084305D0101BAB4106D20122002306E010
:1005B00000224FF0004302E06FF0010253101AEBEB
:1005C00006004CEB085110EB0A0041EB0B01BDE8B3
:1005D000F04D00F0C7B80EB5C10F80EAE0700844D6
:1005E000CA07002140F233438DE80E000A460B464D
:1005F00000F0C7F803B000BD70B5C1F30A5201F0B6
:1006000000450024C1F3130140F2FF3341F480118F
:100610009A4201DA002070BD40F233439A42A2F2BE
:10062000334203DC524200F044F800E090402C4397
:10063000F1D0404270BD00F0004230F000400AD0DE
:10064000C10D01F56071C0F3160042EA0151C20804
:1006500040071143704700200146704701F00043F6
:1006600030B421F0004150EA010206D00A0DA2F593
:100670006072C1F31301002A02DC30BC0020704715
:10068000440F44EAC104C100E01830BC00EBC25082
:1006900000F031B8202A04DB203A00FA02F10020F1
:1006A00070479140C2F1200320FA03F319439040B0
:1006B0007047202A04DB203A21FA02F0002170471B
:1006C00021FA02F3D040C2F12002914008431946BA
:1006D0007047202A06DBCB17203A41FA02F043EAA2
:1006E000E07306E041FA02F3D040C2F120029140EB
:1006F0000843194670470029A8BF7047401C4900AD
:1007000008BF20F00100704710B4B0FA80FC00FA76
:100710000CF050EA010404BF10BC704749B1CCF1A1
:10072000200421FA04F411FA0CF118BF012121432D
:100730000843A3EB0C01CB1D4FEA00614FEA1020E8
:1007400042BF002010BC704700EBC350104400298A
:10075000A4BF10BC7047401C490008BF20F0010036
:1007600010BC704710B5141E73F1000408DA401C69
:1007700041F1000192185B411A4301D120F00100C0
:1007800010BD2DE9F04D92469B4611B1B1FA81F2B0
:1007900002E0B0FA80F220329046FFF77BFF044679
:1007A0000F4640EA0A0041EA0B0153465A46084305
:1007B00013D0114653EA010019D0C8F14002504647
:1007C000FFF777FF05460E46504659464246FFF76B
:1007D00061FF084305D0012004E020463946BDE80A
:1007E000F08D0020054346EAE0762C4337430A9813
:1007F0006305E40AA0EB08000022FD0A44EA47541E
:100800000A3002D500200146E9E7010510196941C7
:10081000DDE9084500196941BDE8F04DA2E7000097
:10082000064C074D06E0E06840F0010394E807003D
:1008300098471034AC42F6D3FFF7AAFCC056010823
:10084000E05601082DE9F04D00231A461B1A8A4193
:1008500003DB00200146BDE8F08DC1F30A52C1F36D
:10086000130141F480154FF0000BD10702D100189D
:100870006D41521E0027044640F2FF11384601EB3D
:10088000620A3E468046024600204FF48011FFF780
:1008900010FFC2197141BB1846EB0100B4EB030C09
:1008A00075EB000C04D3E41A65EB000517460E4601
:1008B000241908F101006D4180463428E3DDF9195F
:1008C00046EB0600091BA84103D24FF0FF32134646
:1008D00001E0002213461BEB070046EB0A51BDE87E
:1008E000F04DFFF73FBF0EB540F2334102910021BA
:1008F000CDE900110A460B46FFF743FF03B000BDE8
:1009000070B58C1810F8015B15F0070301D110F8D1
:10091000013B2A1106D110F8012B03E010F8016BFE
:1009200001F8016B5B1EF9D12B0705D40023521E81
:100930000DD401F8013BFAE710F8013BCB1A921CE9
:1009400003E013F8015B01F8015B521EF9D5A142E7
:10095000D8D3002070BD000010B5044804490860D9
:1009600004480549086000F009F810BD00160400AD
:10097000941300200000854F9013002038B5002408
:1009800000250020009000F09BF804E0641CB4F502
:100990007A6F00D904E0074800F0CFFE0028F5D0B8
:1009A00000BF35B904486B46021D0168014800F0DC
:1009B00093FC38BDCC1300209813002000BFFEE745
:1009C00010B5024800F0D4FE10BD0000CC1300208A
:1009D00010B5024800F0CCFE10BD0000F41300205A
:1009E00010B500F00DF804F05BFD044801F0B1FD16
:1009F0000221024800F05BFC10BD0000CC13002077
:100A000000B58BB00E2006900020079001200890C2
:100A1000002001900290039004900590012009901D
:100A200001A9024800F004FD0BB000BDCC1300206A
:100A300010B504461D480068046000201B49096881
:100A400048601A490968886018490968C860082020
:100A5000164909680861002008E01821A1EBC002CE
:100A600013490968D140134A1154401C0428F4DB8F
:100A7000042009E0011F1822A2EBC1020E490968F7
:100A8000D1400C4A1154401C0828F3DB002006E03A
:100A900008490A5C0549091D0A54411CC8B20828C6
:100AA000F6DB0121054800F002FC10BD9813002080
:100AB000941300208813002090130020CC130020F2
:100AC00010B500201E49096808601E481C490968C5
:100AD000486004201A49096888600020184909689C
:100AE000C8600620164909680861002008E018213E
:100AF000A1EBC00214490968D140144A1154401CAA
:100B00000428F4DB042009E0011F1822A2EBC10233
:100B10000F490968D1400D4A1154401C0828F3DBE5
:100B2000002006E009490A5C0549091D0A54411CD8
:100B3000C8B20828F6DB0121064800F0B8FB10BD5A
:100B40009813002060182C1894130020881300209C
:100B500090130020CC13002038B500240020009012
:100B600040F20160FFF764FF04E0641CB4F57A6FA3
:100B700000D904E0064800F0E0FD0028F5D000BFF1
:100B800004486B46021D0168014800F0A5FB38BD12
:100B9000CC1300209813002038B5002402200090C8
:100BA00040F20260FFF744FF04E0641CB4F57A6F82
:100BB00000D904E0064800F0C0FD0028F5D000BFD1
:100BC00004486B46021D0168014800F085FB38BDF2
:100BD000CC1300209813002038B500240320009087
:100BE00040F20360FFF724FF04E0641CB4F57A6F61
:100BF00000D904E0064800F0A0FD0028F5D000BFB1
:100C000004486B46021D0168014800F065FB38BDD1
:100C1000CC1300209813002010B5024801F03AFDD3
:100C200010BD00008415002010B5024801F032FD0F
:100C300010BD00004416002010B5024801F02AFD46
:100C400010BD0000E4150020014608781038182374
:100C5000B0FBF3F20848805CC865032A05D9086830
:100C60006FF30900001D886503E008686FF3090051
:100C70008865886D70470000E04D0108014600203E
:100C80008A6A8B69CBB932B1012A0DD0022A03D00E
:100C9000032A10D10EE000BFCB6A03F08073B3F1DA
:100CA000807F00D1012007E0CB6AB3F1C07F00D183
:100CB000012001E000E000BF34E08B69B3F5005F84
:100CC0001AD132B1012A07D0022A03D0032A11D146
:100CD0000AE000BF01200EE0CB6A03F08073B3F19D
:100CE000807F00D1012006E0CB6AB3F1C07F00D144
:100CF000012000E000BF15E032B1012A05D0022A30
:100D000004D0032A0CD103E000BF00BF012008E09B
:100D1000CB6A03F08073B3F1807F00D1012000E043
:100D200000BF00BF704730B50468246824F48024F5
:100D300005682C60046863608468402C04D10468F2
:100D4000A2600468E16003E00468A1600468E260F6
:100D500030BD704710B55448007800F02000F8B15D
:100D6000002005F0F9FE5048007800F0100060B94E
:100D70004E484F4908604FF070604E490860FFF7D9
:100D8000EBFE012001F066FE0AE04748007800F023
:100D9000080028B9022008F00FFC012001F05AFEDB
:100DA0004148007800F0040030B3012005F0D4FE83
:100DB0003D48007800F00200B0B93C483C4908606A
:100DC0003D483C490860FFF7E7FE9FED3C0A3C4880
:100DD00080ED060A012001F03DFE00231A46194667
:100DE00018460DF079FA07E02F48007800F001006E
:100DF00010B903200DF02CFA2B48008800F4807005
:100E000008B3022005F0A8FE2748007800F0800013
:100E100088B92648264908604FF070602549086067
:100E2000FFF7DAFE9FED250A264880ED060A01202D
:100E300001F010FE07E01C48007800F0400010B9F7
:100E4000012012F07FFF1848008800F4805050B154
:100E5000164817490860000316490860FFF77CFE32
:100E6000012001F0F7FD1048008800F4806050B1C7
:100E70000E480F49086000030E490860FFF78CFE1A
:100E8000012001F0E7FD0848008800F4804050B1DF
:100E9000064807490860000306490860FFF79CFE02
:100EA000012001F0D7FD10BD181100200060402B7B
:100EB00094130020901300200000103F0000000059
:100EC0007412002098120020016801F58051896990
:100ED00021F00202016801F580518A6170470168C2
:100EE00001F58051896941F00202016801F58051E4
:100EF0008A617047016801F58051896921F40052C7
:100F0000016801F580518A617047016801F58051DF
:100F1000896941F40052016801F580518A61704786
:100F200008B508490968C9084FF47A72B1FBF2F1B3
:100F30004143009100BF00BF00994A1E0092002962
:100F4000F9D108BD6810002038B504460020009093
:100F5000206800F58050806940F48011206800F519
:100F600080508161206800F58050806900900120E8
:100F7000FFF7D6FF0099206800F58050816138BDE9
:100F800010B5024801F0FCFE10BD0000CC47002067
:100F900030B503461479557944EA0520084C0C44D1
:100FA0002064D4782406957844EA0544557844EAC8
:100FB0000524157844EA0500014C0C44606430BDFA
:100FC0000080024070B5AEB004460E46002526B142
:100FD0004FF40061E160C900A160002011901290FF
:100FE0001390149015901690E06918B94FF4806032
:100FF000179001E0002017904FF400701890002027
:1010000019901A901B901C901D9040201E9000205B
:101010001F9020902190229023902490259026903C
:10102000802027900020289029902A902B902C90A7
:101030002D902068056871480540DDE911010843DD
:101040001399084314990843A16808431599084364
:1010500016990843E168084317990843189908430B
:10106000199908431A9908431B99084305432068B6
:10107000056020680568012001F0ECFC206805602F
:10108000DDE91C0108431E9908431F990843209974
:10109000084321990843229908432399084321686A
:1010A000486020684568012001F0D4FC2068456054
:1010B00024982168886025982168C860206885691F
:1010C0004FF641700540DDE9261040EA01402899BD
:1010D0000843299908432A9908432B990843054353
:1010E0002068856120688569012001F0B3FC2068D3
:1010F0008561DDE92C0108432168C8612068C56964
:10110000012001F0A7FC2068C561002001904FF08C
:1011100000700290002003904FF400100490002013
:10112000059006900790089004200990C0050A9049
:1011300040120B9080010C9040120D9080200E9078
:1011400000200F901090206800F5805085692C4891
:101150000540DDE901010843039908430499084368
:1011600005990843069908430799084308990843D5
:10117000099908430543206800F58050856120687F
:1011800000F580508569012001F064FC206800F5BD
:1011900080508561DDE90A0108430C9908430D99E7
:1011A00008430E9908430F9940EA810010990843BB
:1011B00040F40001206800F580500160206800F5CF
:1011C00080500568012001F045FC206800F5805042
:1011D0000560A069012809D1206800F58050C06928
:1011E00008490843216801F58051C8610021204663
:1011F0006269FFF7CDFE2EB070BD00000F8120FFA9
:10120000233FDEF84000010038B50446002000907E
:101210002068006820F004002168086020680068E9
:1012200000900120FFF77CFE00982168086038BD1F
:1012300038B50446002000902068006840F00400A3
:10124000216808602068006800900120FFF768FEB0
:1012500000982168086038BD38B504460020009029
:101260002068006820F00800216808602068006895
:1012700000900120FFF754FE00982168086038BDF7
:1012800038B50446002000902068006840F008004F
:10129000216808602068006800900120FFF740FE88
:1012A00000982168086038BD72B600BFFEE710B52F
:1012B000024692F82030012B01D0022B06D1106893
:1012C0004069084314686061002010BD506A40F412
:1012D000802050620120F8E7F0B504460D461E4616
:1012E00094F8207020688368A86800B900E000BF07
:1012F000012F01D0022F7CD103F0806030B903F0C0
:10130000006018B903F08050002873D0C3F3016166
:10131000022905D9606A40F4000060620120F0BD36
:10132000012088403060A86860B9B5F800C0E8685E
:1013300040EA4C5C206800F5C07000EB0110C0F87A
:1013400000C00FE0D5E901C040EACC00D5F80CC0E0
:1013500040EA0C00D4F800C00CF5C07C0CEB011C7A
:10136000CCF80000D5F810C0206800F5C07000EB84
:101370000110C0F804C0287D01280ED1206800F5B6
:10138000C07000EB0110406840F4807C206800F5DC
:10139000C07000EB0110C0F804C0D079000692F8CC
:1013A00006C040EA0C4092F805C040EA0C2C1079C7
:1013B0004CEA000C206800F5C07000EB0110C0F88A
:1013C0000CC0D078000692F802C040EA0C4092F8B7
:1013D00001C040EA0C2092F800C040EA0C00D4F8AA
:1013E00000C00CF5C07C0CEB011CCCF80800206898
:1013F00001E016E00FE000F5C07000EB011000689E
:1014000040F0010C206800F5C07000EB0110C0F83E
:1014100000C0002083E7606A40F400106062012091
:101420007DE7606A40F480206062012077E7000079
:10143000F0B504460A46216894F82050012D01D0E9
:10144000022D7ED1424901F50071086840F001008B
:101450000860086820F47C5008600868566A40EA12
:1014600006200860107D00F01F06012000FA06F338
:10147000C8699843C861A1F50071D069C8B9D1F8AD
:101480000C029843C1F80C02908880B2968940EA19
:10149000064601F51070576940F83760108880B231
:1014A000168940EA064601F51070576900EBC7003F
:1014B0004660D069012819D1D1F80C021843C1F84F
:1014C0000C02908880B2168840EA064601F510703A
:1014D000576940F83760908980B2168940EA06461D
:1014E00001F51070576900EBC7004660906928B994
:1014F000D1F804029843C1F8040204E0D1F80402D0
:101500001843C1F80402106928B9D1F814029843AD
:10151000C1F8140204E0D1F814021843C1F814020F
:10152000106A012804D1D1F81C021843C1F81C022A
:10153000D1F8000220F00100C1F800020020F0BD47
:10154000FFE7606A40F4802060620120F7E7000056
:101550000064004010B5044603A005F0AFFD616AC9
:1015600008A005F0ABFD10BD2A2A2A43414E206396
:10157000616C6C6261636B206572726F722A2A2AD9
:101580000A00000020204572726F72436F6465206C
:101590003D2025780A00000010B50246002092F890
:1015A0002030012B01D0022B09D121B91468E46845
:1015B00004F0030003E01468246904F0030010BD84
:1015C00070B5044694F82050012D01D0022D7DD134
:1015D00051B92068C06800F0030080B9606A40F427
:1015E00000106062012070BD2068006900F00300F7
:1015F00028B9606A40F4001060620120F3E72068B7
:1016000000F5D87000EB0110006800F00400906055
:10161000906840B9206800F5D87000EB01100068B0
:10162000400D106007E0206800F5D87000EB011055
:101630000068C0085060206800F5D87000EB011009
:10164000006800F00200D060206800F5D87000EB60
:101650000110406800F00F001061206800F5D8709C
:1016600000EB0110406800F47F40000A90612068A0
:1016700000F5D87000EB01104068000C5061206844
:1016800000F5D87000EB011080681870206800F534
:10169000D87000EB0110806800F47F40000A587099
:1016A000206800F5D87000EB0110806800F47F001E
:1016B000000C9870206800F5D87000EB011080686D
:1016C000000ED870206800F5D87000E02FE000EB25
:1016D0000110C0681871206800F5D87000EB011087
:1016E000C06800F47F40000A5871206800F5D87087
:1016F00000EB0110C06800F47F00000C98712068B6
:1017000000F5D87000EB0110C068000ED87131B937
:101710002068C06840F020002668F06005E020687E
:10172000006940F020002668306100205BE7606AB5
:1017300040F480206062012055E70146002091F8C6
:101740002020012A01D0022A11D10B689B6803F0E6
:10175000806303B1401C0B689B6803F0006303B116
:10176000401C0B689B6803F0805303B1401C70471A
:101770002DE9F05F04460025206846692068D0F80E
:101780000490206887682068D0F80CA02068D0F802
:1017900010B02068D0F8188006F00100002855D05D
:1017A00007F00100C0B101202168886007F0020045
:1017B00018B1204600F0FDFE0EE007F0040010B165
:1017C00045F4006508E007F0080010B145F48055C5
:1017D00002E0204600F0ECFE07F48070C8B14FF440
:1017E00080702168886007F4007018B1204600F00E
:1017F000E2FE0EE007F4806010B145F4005508E009
:1018000007F4006010B145F4804502E0204600F086
:10181000D1FE07F48030C8B14FF480302168886071
:1018200007F4003018B1204600F0C7FE0EE007F4C0
:10183000802010B145F4004508E007F4002010B105
:1018400045F4803502E0204600F0B6FE06F00800C0
:1018500038B10AF0100020B145F40075102021685D
:10186000C86006F0040040B10AF0080028B1082062
:101870002168C860204600F00DFA06F0020038B179
:101880002068C06800F0030010B1204600F004FAA0
:1018900006F0400038B10BF0100020B145F480652F
:1018A00010202168086106F0200040B10BF008000C
:1018B00028B1082021680861204600F047FE06F0A4
:1018C000100038B12068006900F0030010B1204614
:1018D00000F03DFE06F4003040B109F0100028B1E0
:1018E000102021684860204600F032FE06F4803067
:1018F00040B109F0080028B108202168486020465E
:1019000000F05CFE06F4004088B309F0040078B3F0
:1019100006F4807020B108F0010008B145F001051F
:1019200006F4007020B108F0020008B145F002058D
:1019300006F4806020B108F0040008B145F0040509
:1019400006F40060A0B108F0700088B108F07000E3
:10195000402817D006DC10280BD020280CD03028C7
:1019600019D10CE0502810D0602814D110E01DE0EF
:1019700019E045F008050FE045F010050CE045F0D2
:10198000200509E045F0400506E045F0800503E04C
:1019900045F4807500E000BF00BF2068806920F03A
:1019A0007000216888610420216848602DB1606A58
:1019B000284360622046FFF7CDFDBDE8F09F70B57B
:1019C00004460CB9012070BD94F8200010B92046DF
:1019D00000F0B0F82068006840F00100216808605D
:1019E00001F0B2FE05460DE001F0AEFE401B0A28F4
:1019F00008D9606A40F400306062052084F8200055
:101A00000120E0E72068406800F001000028EBD0EA
:101A10002068006820F002002168086001F094FE50
:101A200005460DE001F090FE401B0A2808D9606AC7
:101A300040F400306062052084F820000120C2E7F5
:101A40002068406800F002000028EBD1207E0128C9
:101A500006D12068006840F080002168086005E039
:101A60002068006820F0800021680860607E0128FE
:101A700006D12068006840F040002168086005E059
:101A80002068006820F0400021680860A07E0128DE
:101A900006D12068006840F020002168086005E059
:101AA0002068006820F0200021680860E07E01289E
:101AB00006D12068006820F010002168086005E069
:101AC0002068006840F0100021680860207F01282D
:101AD00006D12068006840F008002168086005E031
:101AE0002068006820F0080021680860607F0128F5
:101AF00006D12068006840F004002168086005E015
:101B00002068006820F0040021680860D4E9020120
:101B1000084321690843616908436168491E084315
:101B20002168C86100206062012084F82000002044
:101B300049E7000010B586B00446142101A8FEF75D
:101B4000AAFB4F492068884242D14E480068401C99
:101B50004C4908600846006801280FD100BF0020EA
:101B600000904948006840F0007047490860084606
:101B7000006800F00070009000BF00BF00BF0020B0
:101B8000009041481038006840F002003E4910398A
:101B900008600846006800F00200009000BF00BF27
:101BA0004FF4407001900220029000200390032027
:101BB00004900920059001A9344801F0BDFC0022E1
:101BC0001146142001F04AFE142001F037FE54E0C3
:101BD0002F492068884250D100BF002000902A4839
:101BE000006840F08060284908600846006800F0FE
:101BF0008060009000BF00BF22480068401C21495F
:101C000008600846006801280FD100BF002000903E
:101C10001D48006840F000701B49086008460068D5
:101C200000F00070009000BF00BF00BF00200090D7
:101C300015481038006840F0020013491039086058
:101C40000846006800F00200009000BF00BF60205E
:101C500001900220029000200390032004900920AC
:101C6000059001A9094801F067FC002202214020EB
:101C700001F0F4FD402001F0E1FD06B010BD0000D0
:101C8000006400403C100020403802400004024044
:101C9000006800407047000010B52DED068B82B043
:101CA000044600BF00212046FFF776FC0028F9D04B
:101CB0006B46FE4A00212046FFF782FCFC49206863
:101CC00088426AD1F948006840F28111884211D0F7
:101CD000F648006840F2812188420BD0F348006842
:101CE00040F28131884205D0F048006840F28141DD
:101CF00088427DD1ED4880680028FAD1EB48006920
:101D00000828F6D10120EB490860E848006840F255
:101D1000811188425BD1E8480078E8BB0120E649A0
:101D20000870002005E01DF80010E44A42F8201079
:101D3000401C0828F7DB9DF800009DF8011000EB1F
:101D4000012000B2DE4908809DF802009DF80310D2
:101D500000EB012000B2DA4948809DF804009DF8AC
:101D6000051000EB012000B2D54988809DF80600DF
:101D70009DF8071000EB012000B2D149C880084649
:101D8000B0F9060000EE100AB8EEC00ACD4880EDAA
:101D9000010A90ED010A01E011E0A9E3DFEDCA0AB2
:101DA00080EE201AC94890ED000A21EE000ADFED0E
:101DB000C80A80EE201AC74880ED001A93E300207D
:101DC000BD490870C4490870C44908708BE3B7481E
:101DD000006840F28121884243D1B7480078012849
:101DE00037D10020B44908700120BB49087000E0D9
:101DF000D9E0002006E01DF80020B049203141F86C
:101E00002020401C0828F6DB9DF800009DF80110FA
:101E100000EB012000B2AA4908819DF802009DF85C
:101E2000031000EB012000B2A54948819DF8040091
:101E30009DF8051000EB012000B2A14988819DF8B2
:101E400006009DF8071000EB012000B29C49C881F4
:101E500049E30020984908709F4908709F4908701D
:101E600041E39248006840F28131884250D19A485B
:101E70000078012844D10020974908700120974933
:101E80000870002006E01DF800208C49403141F820
:101E90002020401C0828F6DB9DF800009DF801106A
:101EA00000EB012000B2864908829DF802009DF8EF
:101EB000031000EB012000B2814948829DF8040024
:101EC0009DF8051000EB012000B27D4988829DF845
:101ED00006009DF8071000EB012000B27849C88287
:101EE0000846B0F9120000EE100AB8EEC00A7548B4
:101EF00080ED000A90ED000A794880ED000AF2E2D8
:101F000000206D4908707449087074490870EAE24D
:101F10006648006840F28141884299D16F48007854
:101F2000012838D16F4908700020634908706A4958
:101F300008706A49087000BF06E01DF800205F497C
:101F4000603141F82020401C0828F6DB9DF8000095
:101F50009DF8011000EB012000B2594908839DF85B
:101F600002009DF8031000EB012000B254494883A1
:101F70009DF804009DF8051000EB012000B25049C7
:101F800088839DF806009DF8071000EB012000B241
:101F90004B49C883A7E20020474908704E490870A2
:101FA0004E4908709FE241480068B0F5807F3CD1FF
:101FB0009DF8071009069DF8062001EB02419DF8E7
:101FC000052001EB02219DF804208818FEF703FB91
:101FD00041EC190B9FED440B53EC102BFEF71AFA52
:101FE00041EC180BFEF708FB414908609DF803100F
:101FF00009069DF8022001EB02419DF8012001EB4A
:1020000002219DF800208818FEF7E5FA41EC190B33
:102010009FED380B53EC102BFEF7FCF941EC180B3D
:10202000FEF7EAFA354908605DE220480068B0F53D
:10203000817F74D19DF80710C9039DF8062001EB3C
:10204000C2119DF8052001EB620108B2FEF7C3FA48
:1020500041EC190B9FED2A0B53EC102BFEF7DAF92C
:1020600041EC180BFEF7C8FA274908609DF80210EA
:1020700009049DF8012001EB02219DF80020114484
:10208000891008B2FEF7A7FA41EC1A0B9FED1F0B5F
:1020900053EC102BFEF730FA41EC190B81F00041A4
:1020A00041EC180BFEF7A8FA1A4936E0807F0020B1
:1020B000006400407C13002011110020647E002089
:1020C000147F0020D81100200000C842104F0108E2
:1020D00000003443181200201211002013110020B8
:1020E00014120020E811002088F8E2E6AFEB823FEE
:1020F000EC110020E43FEE6CD96BC33FF8110020D7
:10210000A4703D0AD7A3C0BFF0110020713D0AD7CB
:10211000A3F01640FC11002001E00860E3E1F8485C
:102120000068B0F5827F3CD19DF80710C9039DF887
:10213000062001EBC2119DF8052001EB620108B2F7
:10214000FEF749FA41EC190B1FED130B53EC102B62
:10215000FEF760F941EC180BFEF74EFAE94908600A
:102160009DF8021009049DF8012001EB02219DF861
:1021700000201144891008B2FEF72DFA41EC1A0B29
:102180001FED1E0B53EC102BFEF7B6F941EC190BAB
:1021900081F0004141EC180BFEF72EFADA49086095
:1021A000A1E1D748006840F2011188423BD19DF877
:1021B000000038B9D54800884FF6E7710840D34988
:1021C00008801CE09DF80000FD280BD1CF48008856
:1021D00040F01000CD4908800846008840F0080013
:1021E00008800CE0C948008840F01000C74908800A
:1021F000084600884FF6F7710840C44908809DF8EA
:102200000200000200B29DF801100843C049088096
:102210009DF8030000F00800BC49098841EA40200D
:10222000BA4908805FE1B648006840F2031188426D
:102230003ED10020B74908809DF8000038B9B34866
:1022400000884FF6FC710840B04908801CE09DF8FA
:10225000000001280BD1AD48008840F00200AB49D6
:1022600008800846008840F0010008800CE0A7487C
:10227000008840F00200A5490880084600884FF613
:10228000FE710840A14908809DF80200000200B2DA
:102290009DF801100843A04908809DF8030000F054
:1022A00008009A49098841EAC010984908801AE153
:1022B0009348006840F2051188423ED100209549BC
:1022C00008809DF8000038B9904800884FF63F71AB
:1022D00008408E4908801CE09DF8000004280BD1BE
:1022E0008A48008840F080008849088008460088B5
:1022F00040F0400008800CE08448008840F08000F6
:1023000082490880084600884FF6BF7108407F491F
:1023100008809DF80200000200B29DF801100843F9
:102320007E4908809DF8030000F00800774909887D
:1023300041EAC02075490880D5E0714800688128CD
:102340000AD1002076490870704800884FF6C7719E
:1023500008406E490880C6E06948006882280AD1B2
:1023600000206F490870694800884FF6F8710840EE
:1023700066490880B7E06248006883280AD10020D7
:1023800067490870614800884FF63F6108405F491F
:102390000880A8E05A48006840F20171884211D1D3
:1023A0009DF80000052803D102B0BDEC068B10BDDE
:1023B00001205B4908705548008840F020005349CF
:1023C000088090E04E48006840F2027188420FD1C8
:1023D0000120534908704D48008840F004004B49E3
:1023E00008805048408A404200B24F4908807AE055
:1023F0004348006840F20371884209D101204849EE
:1024000008704248008840F48070404908806AE0C3
:102410003B4840684549884213D039484068491CC8
:1024200088420ED036484068491C884209D034485A
:102430004068491C884204D031484068491C8842A1
:1024400051D12F48806804284DD12D4800690828B3
:1024500049D10120364908602948406833498842FB
:1024600016D19DF801009DF8021040EA0120642178
:1024700090FBF1F02F4908809DF805009DF80610AB
:1024800040EA0120642190FBF1F02B4908801BE019
:102490001B4840682549C91C88420BD19DF80100A2
:1024A0009DF8021040EA0120642190FBF1F02349DD
:1024B000088009E0124840681C49091D884203D180
:1024C0009DF803001E4908701B4800884FF47A717C
:1024D00090FBF1F01949098848434FF47A7190FB59
:1024E000F1F01849088002211748FEF7E0FE02E0EB
:1024F00000200F49086002F0D3FF00BF54E700003E
:10250000807F0020F411002000120020181100200C
:10251000041200201A1100200612002008120020C8
:1025200014110020147F00201611002060580C1A8E
:102530007C1300201E1100202011002022110020F9
:102540002411002026110020CC1300207047704772
:10255000704770B5044694F82000012822D102206B
:1025600084F820002068006820F0010021680860DD
:1025700001F0EAF805460DE001F0E6F8401B0A28F4
:1025800008D9606A40F400306062052084F82000B9
:10259000012070BD2068406800F001000028EBD1E8
:1025A0006062F6E7606A40F4002060620120F0E7B4
:1025B000704770477047704770477047704770B5F5
:1025C0000446A56D01F0C0F8064694F835000228CF
:1025D00008D08020606500BF002084F8340000BF70
:1025E000012070BD2068006820F016002168086096
:1025F0002068406920F0800021684861206C08B99B
:10260000A06C28B12068006820F0080021680860EC
:102610002068006820F001002168086010E001F0E7
:1026200093F8801B05280BD920206065032084F8CF
:10263000350000BF002084F8340000BF0320D0E73D
:102640002068006800F001000028E8D194F85C10D0
:102650003F208840A860012084F8350000BF00209A
:1026600084F8340000BF00BFBBE7014691F8350095
:10267000022803D08020486501207047052081F89A
:1026800035000868006820F001000A68106000202A
:10269000F3E70000F8B50446002000908C4800687D
:1026A0004FF41651B0FBF1F7A56D2E6894F85C104D
:1026B00008208840304098B12068006800F004008D
:1026C00070B12068006820F004002168086094F868
:1026D0005C1008208840A860606D40F001006065D3
:1026E00094F85C1001208840304068B1206840694F
:1026F00000F0800040B194F85C1001208840A86090
:10270000606D40F00200606594F85C100420884021
:10271000304068B12068006800F0020040B194F8D1
:102720005C1004208840A860606D40F00400606583
:1027300094F85C1010208840304078B3206800681E
:1027400000F0080050B394F85C1010208840A86096
:102750002068006800F4802080B12068006800F4E0
:10276000002028B9206CC8B12046216C884715E0AC
:10277000A06C98B12046A16C88470FE020680068E3
:1027800000F4807028B92068006820F008002168F3
:102790000860206C10B12046216C884794F85C10CA
:1027A000202088403040002865D02068006800F074
:1027B000100000285FD094F85C1020208840A860AA
:1027C00094F83500052828D12068006820F016000C
:1027D000216808602068406920F080002168486115
:1027E000206C08B9A06C28B12068006820F00800AF
:1027F0002168086094F85C103F208840A8600120A0
:1028000084F8350000BF002084F8340000BF206D3C
:1028100010B12046216D8847F8BD2068006800F49B
:10282000802080B12068006800F4002028B9606C26
:1028300010B12046616C88471DE0E06BD8B120469E
:10284000E16B884717E02068006800F4807068B981
:102850002068006820F0100021680860012084F8DA
:10286000350000BF002084F8340000BFE06B10B1D9
:102870002046E16B8847606D38B3606D00F0010061
:10288000F0B1052084F835002068006820F00100D0
:102890002168086000BF0098401C0090B84200D931
:1028A00005E02068006800F001000028F3D100BFB7
:1028B000012084F8350000BF002084F8340000BFF8
:1028C000E06C10B12046E16C884700BFA4E700002F
:1028D000681000202DE9F0410446002500F034FF87
:1028E000074614B90120BDE8F081606A00B100BF5D
:1028F000022084F8350000BF002084F8340000BFB7
:102900002068006820F00100216808600AE000F0FB
:102910001BFFC01B052805D920206065032084F813
:102920003500E0E72068006800F001000028EED1E3
:102930002068056821480540D4E901010843E168A1
:1029400008432169084361690843A1690843E169B3
:102950000843216A08430543606A042803D1D4E987
:102960000B0108430543206805602068456925F090
:102970000705606A0543606A04280DD1A06A054313
:10298000E06A48B12046FEF779F928B14020606539
:10299000012084F83500A6E7206845612046FEF74F
:1029A00053F9064694F85C103F208840B060002040
:1029B0006065012084F83500002094E73F8010F026
:1029C0002DE9F04704460D4616461F464FF0000815
:1029D000D4F8589000BF94F83400012802D10220A6
:1029E000BDE8F087012084F8340000BF94F835007A
:1029F000012825D1022084F83500002060653B467F
:102A0000324629462046FEF78EF994F85C103F20A6
:102A10008840C9F808002068006840F01600216866
:102A20000860206C28B12068006840F00800216828
:102A300008602068006840F001002168086006E036
:102A400000BF002084F8340000BF4FF00208404669
:102A5000C6E7000070B5044600F076FE064625463F
:102A6000681C10B104480078054400BF00F06CFEFB
:102A7000801BA842FAD370BD6410002070B50546D3
:102A80000C46002600BF95F84500012801D1022020
:102A900070BD012085F8450000BF022085F8440084
:102AA000002C6DD02868066843480640D4E9000130
:102AB0000843A1680843E1680843A96808432169FD
:102AC000084361690843E9680843A1690843E1696B
:102AD0000843216A0843616A0843A16A0843064320
:102AE00028680660286806680120FFF7B3FF286899
:102AF0000660D4E90B010843616B0843A16B0843EE
:102B0000E16B0843216C0843616C0843A16C0843E6
:102B100029684860286846680120FFF79BFF2868FD
:102B20004660E06C29688860206D2968C860286864
:102B300086694FF641700640B4F85410A06D40EA23
:102B40000140E16D0843216E0843616E0843A16EA8
:102B50000843064328688661286886690120FFF7D4
:102B600079FF28688661D4E91B0108432968C86198
:102B70002868C6690120FFF76DFF2868C66110E06C
:102B80002868066826F49046D5E902010843064302
:102B900028680660286806680120FFF75BFF286840
:102BA0000660012085F8440000BF002085F845003C
:102BB00000BF00BF6CE700000F8120FF70B5044626
:102BC0000D461646002200BF94F84500012801D1A9
:102BD000022070BD012084F8450000BF022084F867
:102BE0004400A56200221FE005EB42114FF00040B7
:102BF000086044F2F4504860C2EBC21000EB4000A1
:102C000006EB80008860A069012803D1486820F0A5
:102C100000404860581E904204D905EB4210203015
:102C2000C86000E0CD60521C9A42DDD3206800F5F8
:102C30008050C560012084F8440000BF002084F863
:102C4000450000BF00BFC4E770B504460D461646F8
:102C5000002200BF94F84500012801D1022070BD78
:102C6000012084F8450000BF022084F84400E5629A
:102C700000221BE005EB42114FF480100860C2EB0C
:102C8000C21000EB400006EB80008860E06918B9D4
:102C9000086840F440000860581E904204D905EBD3
:102CA00042102030C86000E0CD60521C9A42E1D34F
:102CB000206800F580500561012084F8440000BFC1
:102CC000002084F8450000BF00BFC8E770470146F8
:102CD000002200BF91F84500012801D10220704771
:102CE000012081F8450000BF022081F84400886A75
:102CF000006800F00040002838D1886A006800F4BD
:102D00008070F0B1886B401C8863886B012801D10A
:102D1000886A08638B6A4B63886A0068C0F30D4059
:102D2000021FCA63086B83680B64886AC068886284
:102D3000012081F8440000BF002081F8450000BF59
:102D4000CDE7886A006800F4007048B1886A0863BB
:102D500000234B6301238B63886AC068886205E0A7
:102D6000886B401C8863886AC0688862012081F88B
:102D7000440000BF002081F8450000BF0120AEE7FD
:102D800010B50446206800F58050406900F040000E
:102D900040280FD1204600F094FA4021206800F529
:102DA00080504161012084F8440000BF002084F875
:102DB000450016E0206800F58050406900F00100F1
:102DC00078B1204600F06FFB0121206800F58050AB
:102DD0004161012084F8440000BF002084F84500D0
:102DE00000BF4FF48031206800F5805041612068B9
:102DF00000F58050406900F40040B0F5004F10D15C
:102E00002046FFF763FF4FF40041206800F5805033
:102E10004161012084F8440000BF002084F845008F
:102E200000BF10BD2DE9FC410446002500200190A3
:102E30009D4E0027804614B90120BDE8FC8194F81E
:102E4000440028B9002084F84500204600F03AF9F3
:102E500000BF002000909548006840F480409349EE
:102E600008600846006800F48040009000BF00BF82
:102E70008F48006820F400008D490860084600680B
:102E8000216A08438A490860206800F5805000687C
:102E900040F00101206800F58050016000F054FC12
:102EA00007460FE000F050FCC01BB0F5FA7F09D9CF
:102EB000032084F8440000BF002084F8450000BFD0
:102EC0000320BAE7206800F58050006800F0010098
:102ED0000028E7D12068056925F01C0500F0D2FD27
:102EE00006467448864205D37348864202D245F0AE
:102EF00008051AE07048864205D36B48864202D224
:102F000045F00C0511E06848864203D36B488642C1
:102F100000D20AE06948864205D36948864202D257
:102F200045F0040501E045F01005206805614FF407
:102F300000420021204600F0B7FA48B14FF00108E6
:102F400041462046FEF73EF8012084F8440074E72D
:102F5000FF20FFF77FFD6068002871D000F0F4FBD0
:102F6000074600BF01AA0121204600F061F900F0E8
:102F7000EBFBC01B41F2883188420FD94FF00108AA
:102F800041462046FEF71EF8012084F8440000BFA9
:102F9000002084F8450000BF03204EE7019800F0B0
:102FA00004000428DED182020021204600F07CFAD1
:102FB00048B14FF0010841462046FEF703F80120D2
:102FC00084F8440039E700F0BFFB074600BF01AAC0
:102FD0000121204600F02CF900F0B6FBC01B41F2A5
:102FE000883188420FD94FF0010841462046FDF74D
:102FF000E9FF012084F8440000BF002084F8450068
:1030000000BF032019E7019800F020002028DED13E
:1030100001AA1F21204600F00BF948B14FF001082A
:1030200041462046FDF7CEFF012084F8440004E726
:10303000019800F0100020B14FF40061E16002E05F
:103040000DE00021E160019800F00400042802D1A5
:103050000021A1601EE04FF48041A1601AE0E06809
:10306000C0F3CF00A168C1F34F0140EA0102002183
:10307000204600F019FA48B14FF0010841462046B9
:10308000FDF7A0FF012084F84400D6E640F6FF706B
:10309000FFF7E0FC41462046FDF794FF012084F84D
:1030A00044000020C9E60000008793034438024032
:1030B00004380140002D3101C00E160200E1F50573
:1030C00080D1F00810B586B00446142101A8FDF7A0
:1030D000E2F85249206888427ED100BF00BF00203C
:1030E00000904F48006840F000704D490860084665
:1030F000006800F00070009000BF00BF00BF00201B
:1031000000900846006840F080600860084600684B
:1031100000F08060009000BF00BF00BF0020009062
:103120000846006840F0006008600846006800F04B
:103130000060009000BF00BF00BF00BF00200090F3
:103140000846006840F0040008600846006800F087
:103150000400009000BF00BF00BF002000900846A0
:10316000006840F0010008600846006800F00100B7
:10317000009000BF00BF00BF00200090084600681C
:1031800040F0400008600846006800F040000090F1
:1031900000BF00BF32200190022002900020039067
:1031A000032004900B20059001A91E4800F0C4F9EB
:1031B00086200190022002900020039003200490BA
:1031C0000B20059001A9184800F0B6F94FF4D04043
:1031D00001900220029000E01EE0002003900320F6
:1031E00004900B20059001A9104800F0A5F90022D9
:1031F00004213D2000F032FB3D2000F01FFB0022A7
:103200000121084800F09AFA0120FFF723FC01226F
:103210001146044800F092FA06B010BD008002404A
:10322000303802400008024000000240001802400E
:103230002DE9F04104460E4617460025A84694F8AD
:103240004400822802D10220BDE8F081822084F867
:1032500044002068056905F01C05208A4FF4784178
:1032600001EAC0200543481100EA8610054325F015
:10327000020545F001052068056100F065FA804609
:1032800012E000F061FAA0EB0800B0F5803F09D32E
:10329000012084F8440000BF002084F8450000BFEE
:1032A0000320D1E72068056905F001000028E8D176
:1032B0002068406980B23860012084F84400002012
:1032C000C2E7704710B5044600BF94F845000128D6
:1032D00001D1022010BD012084F8450000BF02206A
:1032E00084F844002046FDF7CBFF2046FDF7A0FF01
:1032F0002046FDF729FE2046FDF707FE2046FDF794
:10330000EEFD012084F8440000BF002084F8450051
:1033100000BF00BFDEE710B5044600BF94F84500CB
:10332000012801D1022010BD012084F8450000BF12
:10333000022084F844002046FDF7DCFD2046FDF71E
:10334000C3FD2046FDF760FF2046FDF7FDFD20464A
:10335000FDF782FF012084F8440000BF002084F8BC
:10336000450000BF00BFDEE770B502460023002520
:10337000002400BF92F84500012801D1022070BD51
:10338000012082F8450000BF022082F8440049B9BC
:10339000012082F8440000BF002082F8450000BFF1
:1033A0000120ECE7D06A006800F0004048B112202C
:1033B00082F8440000BF002082F8450000BF0120D1
:1033C000DDE740F2F450814208D9B1FBF0F3B1FBE4
:1033D000F0F600FB161010B15B1C00E00123012B7E
:1033E00013D1D06A006840F04050D66A3060C1F313
:1033F0000C00D66A7060D06A006840F00040D66A5F
:103400003060D06AC068D06232E000242EE0D06A1A
:10341000006820F04050D66A30602CB9D06A00684D
:1034200040F08050D66A306040F2F450D66A706046
:10343000581EA04210D1D06A006840F00050D66AF1
:103440003060581EC0EBC01000EB4000A1EB8005BF
:10345000C5F30C00D66A7060D06A006840F0004086
:10346000D66A3060D06AC068D062641C9C42CED3F9
:10347000106800F58050406900F0040048B104264F
:10348000106800F5805046610026106800F58050F5
:103490004660012082F8440000BF002082F8450009
:1034A00000BF00BF6BE770472DE9F04104460E46B0
:1034B00017460025A84694F84400422802D102206D
:1034C000BDE8F081422084F844002068056905F0D9
:1034D0001C05208A4FF4784101EAC02005434811B9
:1034E00000EA8610054345F0020545F00105B8B233
:1034F000216848612068056100F026F9804612E0E5
:1035000000F022F9A0EB0800B0F5803F09D30120BC
:1035100084F8440000BF002084F8450000BF032069
:10352000CEE72068056905F001000028E8D10120F8
:1035300084F844000020C3E7F8B502460B46002596
:10354000002400200021D5E0012606FA01F51E68BE
:1035500006EA0504AC4274D11E7906F00306012E7A
:1035600004D01E7906F00306022E13D190684F0096
:103570000326BE40B0434F00DE68BE40304390603B
:10358000506801268E40B0431E79C6F300168E4067
:10359000304350601E7906F00306032E09D0D06830
:1035A0004F000326BE40B0434F009E68BE403043EC
:1035B000D0601E7906F00306022E13D1CF0802F167
:1035C000200656F827004E07F70E0F26BE40B043E0
:1035D0004F07FF0E1E69BE403043CF0802F12006A0
:1035E00046F8270010684F000326BE40B0431E79FE
:1035F00006F003064F00BE40304310605E6806F4DC
:103600004036002E75D000BF002600963B4E36682F
:1036100046F48046394F3E603E46366806F48046A2
:10362000009600BF00BF364E8F0856F827008E0761
:10363000370F0F26BE40B043324EB24202D10026B1
:1036400024E056E0304EB24201D101261EE02F4E5A
:10365000B24201D1022619E02D4EB24201D1032619
:1036600014E02C4EB24201D104260FE02A4EB242A1
:1036700001D105260AE0294EB24201D1062605E015
:10368000274EB24201D1072600E008268F073F0FE0
:10369000BE4030431A4E8F0846F82700214E30684E
:1036A000A0435E6806F4803606B120431D4E3060AC
:1036B000361D3068A0435E6806F4003606B120432C
:1036C000184E361D3060361D3068A0435E6806F423
:1036D000801606B12043134E08363060361D306820
:1036E000A0435E6806F4001606B120430D4E0C366A
:1036F0003060491C1029FFF427AFF8BD4438024060
:103700000838014000000240000402400008024066
:10371000000C024000100240001402400018024059
:10372000001C0240003C014010B5426921EA02033E
:1037300002EA010443EA0443836110BD0AB18161D6
:1037400001E00B0483617047014800687047000086
:103750005C100020034800680349097808440149C7
:10376000086070475C1000206410002010B50D4800
:10377000006840F400700B4908600846006840F497
:10378000806008600846006840F48070086003208C
:1037900000F0A2F8072000F007F800F02BF8002056
:1037A00010BD0000003C024070B504460E48007891
:1037B0004FF47A71B1FBF0F00C490968B1FBF0F5F8
:1037C000284600F02BFC08B1012070BD102C07D258
:1037D00000222146501E00F041F80548046001E037
:1037E0000120F2E70020F0E76410002068100020BC
:1037F0006010002008B500BF002000900E4800684F
:1038000040F480400C4908600846006800F480409D
:10381000009000BF00BF00BF00200090081F00689C
:1038200040F08050091F08600846006800F0805092
:10383000009000BF00BF08BD443802400146084662
:10384000002809DB00F01F0301229A4043099B0076
:1038500003F1E023C3F8002100BF70472DE9F05FBA
:1038600080460D461646002703F050FC07463946B1
:103870002A46334601F00700C0F1070ABAF1040FE7
:1038800002D94FF0040A01E0C0F1070AD14600F165
:10389000040ABAF1070F02D24FF0000A01E0A0F1CA
:1038A000030AD4464FF0010A0AFA09FAAAF1010AFA
:1038B0000AEA020A0AFA0CFA4FF0010B0BFA0CFBA7
:1038C000ABF1010B0BEA030B4AEA0B04214640461D
:1038D00003F024FCBDE8F09F00BF00F00702064B98
:1038E00019684FF6FF031940044B0B4343EA0221CA
:1038F000014B196000BF70470CED00E00000FA05B5
:1039000070B504460D460CB9012070BD58480068DA
:1039100000F00700A84209D255490D70084600681A
:1039200000F00700A84201D00120EEE7207800F067
:10393000020002281DD1207800F00400042805D1DF
:103940004C48006840F4E0504A490860207800F094
:103950000800082805D14748006840F46040454900
:1039600008604448006820F0F000A168084341491D
:103970000860207800F00100A8B36068012807D132
:103980003C4808380068C0F34040B8B90120BCE7A3
:103990006068022802D06068032807D135480838DB
:1039A0000068C0F3406048B90120AEE731480838EC
:1039B0000068C0F3400008B90120A6E72D48006860
:1039C00020F00300616808432A490860FFF7BCFE45
:1039D000064609E0FFF7B8FE801B41F288318842B5
:1039E00002D9032091E707E02248006800F00C00AC
:1039F0006168B0EB810FEDD11D48006800F0070051
:103A0000A84209D91A490D700846006800F007005D
:103A1000A84201D0012078E7207800F004000428B3
:103A200007D11448006820F4E050E16808431149C8
:103A30000860207800F00800082808D10D480068C8
:103A400020F46040216940EAC1000A49086000F0A2
:103A50003FF808490968C1F30311074A515CC8409F
:103A60000649086006480068FFF79EFE00204CE704
:103A7000003C024008380240E84D01086810002070
:103A800060100020014800687047000068100020A6
:103A900000B5FFF7F7FF04490968C1F38221034A23
:103AA000515CC84000BD000008380240F84D0108D4
:103AB00000B5FFF7E7FF04490968C1F34231034A43
:103AC000515CC84000BD000008380240F84D0108B4
:103AD0002DE9F047002400250026A146254800686E
:103AE00000F00C0020B1042805D008283AD105E0E8
:103AF000DFF8849039E0DFF8849036E01D48001F3D
:103B0000006800F03F041B48001F006800F48000BC
:103B100078B11A481749091F0968C1F38811A0FB39
:103B200001700146224600233846FCF749FB054652
:103B30000EE011480F49091F0968C1F38811A0FB65
:103B400001700146224600233846FCF739FB054642
:103B50000848001F0068C0F30140401C4600B5FB48
:103B6000F6F902E0DFF8109000BF00BF4846BDE85C
:103B7000F0870000083802400024F40040787D01FE
:103B8000F8B504460CB90120F8BD207800F001001A
:103B9000002874D0F948006800F00C0004280DD00B
:103BA000F648006800F00C00082813D1F348001F05
:103BB000006800F48000B0F5800F0BD1EF480838A2
:103BC0000068C0F34040002859D06068002856D1F2
:103BD0000120D9E700BF6068B0F5803F08D1E74811
:103BE0000838006840F48030E449083908601EE075
:103BF0006068B0F5A02F0DD1E0480838006840F4A7
:103C00008020DE49083908600846006840F48030AA
:103C100008600CE0D9480838006820F48030D749A3
:103C2000083908600846006820F48020086000BF5A
:103C3000606890B1FFF788FD054606E0FFF784FD58
:103C4000401B642801D903209EE7CC48083800684F
:103C5000C0F340400028F1D011E0FFF775FD0546A4
:103C600006E0FFF771FD401B642801D903208BE7B4
:103C7000C24808380068C0F340400028F1D12078DD
:103C800000F0020002285FD1BC48006800F00C0080
:103C900058B1BA48006800F00C0008281CD1B74899
:103CA000001F006800F48000B0B9B448083800680C
:103CB000C0F3400020B1E068012801D0012063E793
:103CC000AE480838006820F0F800216940EAC100D9
:103CD000AA490839086037E0E06800B30120A84924
:103CE0000860FFF731FD054606E0FFF72DFD401B9C
:103CF000022801D9032047E7A04808380068C0F32C
:103D000040000028F1D09D480838006820F0F800F5
:103D1000216940EAC10099490839086014E000208F
:103D200097490860FFF710FD054606E0FFF70CFD18
:103D3000401B022801D9032026E790480838006874
:103D4000C0F340000028F1D1207800F008000828D6
:103D50002CD16069A8B101208A490860FFF7F4FC02
:103D6000054606E0FFF7F0FC401B022801D90320BE
:103D70000AE782486C300068C0F340000028F1D0A8
:103D800014E000207F490860FFF7DEFC054606E0EE
:103D9000FFF7DAFC401B022801D90320F4E677483C
:103DA0006C300068C0F340000028F1D1207800F0AA
:103DB0000400042870D1002770483830006800F0F3
:103DC000805090B900BF002000906C4838300068E7
:103DD00040F080506949383108600846006800F0BA
:103DE0008050009000BF00BF01276748006800F4C2
:103DF0008070B0B96448006840F48070624908601F
:103E0000FFF7A2FC054606E0FFF79EFC401B0228D8
:103E100001D90320B8E65C48006800F480700028EF
:103E2000F2D000BFA068012808D15448683000686B
:103E300040F001005149683108601DE0A068052884
:103E40000DD14E486830006840F004004B4968319D
:103E500008600846006840F0010008600CE0474830
:103E60006830006820F00100444968310860084665
:103E7000006820F00400086000BFA068A8B1FFF748
:103E800063FC054609E0FFF75FFC401B41F2883107
:103E9000884202D9032077E626E038486830006877
:103EA000C0F340000028EED013E0FFF74DFC0546BC
:103EB00008E0FFF749FC401B41F28831884201D9F4
:103EC000032061E62D4868300068C0F340000028F8
:103ED000EFD1012F07D129483830006820F08050F9
:103EE00026493831086000BFA069002845D0234822
:103EF000006800F00C0008285DD0A069022845D1B8
:103F000000201F490866FFF71FFC054606E0FFF783
:103F10001BFC401B022801D9032035E6174808384E
:103F20000068C0F340600028F1D1D4E907010843DC
:103F3000616A40EA81110122A06AC2EB500041EAA5
:103F400000412C20005D41EA00600C49091F086017
:103F500001200B490866FFF7F7FB054606E0FFF76F
:103F6000F3FB401B022801D903200DE60348083863
:103F70000068C0F340600028F1D049E008380240F2
:103F800000004742800E4742007000400020214957
:103F90000866FFF7D9FB054606E0FFF7D5FB401B97
:103FA000022801D90320EFE51B480068C0F34060F8
:103FB0000028F2D12CE0A069012800D1E4E51648E0
:103FC000001D0668A069012820D006F48001E06980
:103FD00081421BD106F03F01206A814216D147F68B
:103FE000C0703040616AB0EB811F0FD106F44031E0
:103FF0000122A06AC2EB5000B1EB004F06D106F0DF
:1040000070612C20005DB1EB006F01D00120BBE599
:104010000020B9E5000047420038024070B5044670
:104020002546681EB0F1807F01D301200FE0681E95
:104030004FF0E02148610F214FF0FF3003F06EF8A0
:1040400000204FF0E021886107200861002070BD4A
:104050007047704730B502460B4600BF92F83C00EF
:10406000012801D1022030BD012082F83C0000BFB0
:10407000022082F83D00106844681068816824F0CE
:1040800070041868044310684460184D1068A84212
:104090001BD01068B0F1804F17D0154D1068A842A2
:1040A00013D0144D1068A8420FD0134D1068A842C9
:1040B0000BD0124D1068A84207D0114D1068A842CD
:1040C00003D0104D1068A84205D121F08001586836
:1040D000014310688160012082F83D0000BF00208C
:1040E00082F83C0000BF00BFBDE7000000000140B7
:1040F0000004004000080040000C004000040140A3
:10410000004001400018004010B504460CB90120E1
:1041100010BD94F83D0028B9002084F83C002046EA
:1041200000F026F8022084F83D00211D206802F0EE
:10413000F9F9012084F8460000BF84F83E0001210F
:104140003F200155402001554120015500BF00BFCF
:10415000012084F8420043200155442001554520A8
:10416000015500BF012084F83D000020D0E7000089
:1041700010B586B00446142101A8FCF78CF89049CC
:10418000206888424FD100BF002000908D48006811
:1041900040F001008B4908600846006800F001000B
:1041A000009000BF00BF00BF002000908548143879
:1041B000006840F010008349143908600846006820
:1041C00000F01000009000BF00BF481501900220D1
:1041D00002900020039004900120059001A97A48E4
:1041E000FFF7AAF979487A4908604FF040604860C3
:1041F000002177488160C1604FF48061016149000E
:104200004161890081614911C161002101624162FE
:10421000FEF760FB08B1FDF747F800BF6C49A162EB
:1042200008468463CAE06B49206888421AD100BFFF
:10423000002000906348001F006840F002006149C0
:10424000091F08600846006800F00200009000BFE7
:1042500000BF002211461D20FFF700FB1D20FFF7C5
:10426000EDFAABE05C492068884211D100BF002024
:1042700000905448001F006840F004005149091F95
:1042800008600846006800F00400009000BF95E058
:1042900052492068884211D100BF0020009049484F
:1042A000001F006840F020004649091F08600846CA
:1042B000006800F02000009000BF7FE048492068BF
:1042C00088427BD100BF002000903E48006840F04B
:1042D00002003C4908600846006800F002000090B7
:1042E00000BF00BF00BF00200090364814380068AF
:1042F00040F004003349143908600846006800F0B3
:104300000400009000BF00BF4FF4A0700190022095
:1043100002900020039004900320059001A93148E9
:10432000FFF70AF9294878302F4908604FF060609C
:10433000486000212C488160C1604FF480610161B8
:1043400049004161890081614911C1610021016217
:104350004162FEF7BFFA08B1FCF7A6FF00BF224991
:1043600021630846846300BF00BFA163846300BF6C
:1043700000BF6163846300BF144818301B490860A4
:104380004FF060604860002118488160C1604FF4C0
:104390008061016149004161890081614911C16108
:1043A000002101624162FEF795FA08B1FCF77CFF3B
:1043B00000BF0E49A1620846846300BF06B010BD6D
:1043C00000000140443802400010024040640240B6
:1043D0008415002000040040000800400014004044
:1043E0000004014000080240E415002044160020AB
:1043F000014691F83D00012801D0012070470220BC
:1044000081F83D000868C06840F001000B68D86082
:104410001A4B086898421BD00868B0F1804F17D03B
:10442000174B0868984213D0164B086898420FD073
:10443000154B086898420BD0144B0868984207D077
:10444000134B0868984203D0124B086898420CD16D
:104450000868806800F00702062A0CD00868006827
:1044600040F001000B68186005E00868006840F043
:1044700001000B6818600020C0E700000000014048
:104480000004004000080040000C0040000401400F
:1044900000400140001800402DE9F04104460D465F
:1044A000002700BF94F83C00012802D10220BDE89B
:1044B000F081012084F83C0000BF022084F83D0018
:1044C0002068866826F0770626F47F462068866096
:1044D0002868502833D00CDC202850D004DC002879
:1044E0004BD0102851D149E0302849D040284CD138
:1044F00039E060282DD0702807D0B0F5805F03D058
:10450000B0F5005F41D10DE041E0D5E902136A68E2
:10451000206802F010F92068866846F07706206867
:10452000866034E0D5E902136A68206802F003F976
:104530002068806840F480402168886027E0EA684D
:104540006968206802F041FA5021206802F0FEF804
:104550001DE0EA686968206802F092FA602120682C
:1045600002F0F4F813E0EA686968206802F02DFAB6
:104570004021206802F0EAF809E000BF00BF00BF58
:104580002968206802F0E2F801E0012700BF00BFBF
:10459000012084F83D0000BF002084F83C0000BFEB
:1045A000384684E77047704770472DE9F04104466C
:1045B0000D461646002700BF94F83C00012802D1A2
:1045C0000220BDE8F081012084F83C0000BF96B9CC
:1045D000EB68D5E90012206802F00AFA20688069C9
:1045E00020F00C002168886120688069A968084370
:1045F0002168886141E0042E13D1EB68D5E90012EF
:10460000206802F051FA2068806920F44060216837
:10461000886120688069A96840EA01202168886172
:104620002BE0082E12D1EB68D5E90012206802F0C9
:1046300058FA2068C06920F00C002168C861206821
:10464000C069A96808432168C86116E00C2E13D11F
:10465000EB68D5E90012206802F05FFA2068C069B3
:1046600020F440602168C8612068C069A96840EAF8
:1046700001202168C86100E0012700BF002084F804
:104680003C0000BF38469CE710B504460CB9012039
:1046900010BD94F83D0028B9002084F83C00204665
:1046A00000F025F8022084F83D00211D206801F06B
:1046B00039FF012084F8460000BF84F83E00012144
:1046C0003F200155402001554120015500BF00BF4A
:1046D000012084F842004320015544200155452023
:1046E000015500BF012084F83D000020D0E770474D
:1046F0002DE9F05F04460D4616461F464FF0000BAD
:1047000015B994F83E000BE0042D02D13F20005D66
:1047100006E0082D02D14020005D01E04120005D4F
:10472000814615B994F842000BE0042D02D14320D4
:10473000005D06E0082D02D14420005D01E0452027
:10474000005D8246B9F1020F02D0BAF1020F02D128
:104750000220BDE8F09FB9F1010F2FD1BAF1010F8E
:104760002CD116B90FB10120F3E71DB9022084F84E
:104770003E000EE0042D03D102213F20015508E048
:10478000082D03D102214020015502E002214120E1
:1047900001551DB9022084F8420011E0042D03D117
:1047A0000221432001550BE0082D03D102214420B2
:1047B000015505E002214520015501E00120C8E72F
:1047C00001222946206801F019FF35B1042D1FD0C0
:1047D000082D38D00C2D6CD150E05349606AC1636C
:1047E0005249606A01645249606AC164226802F1F8
:1047F00034013B463246606AFEF7E2F808B1012018
:10480000A7E72068C06840F400702168C86053E0E2
:104810004549A06AC1634549A06A01644449A06A48
:10482000C164226802F138013B463246A06AFEF7B5
:10483000C7F808B101208CE72068C06840F48060A8
:104840002168C86038E03849E06AC1633749E06AE6
:1048500001643749E06AC164226802F13C013B46C9
:104860003246E06AFEF7ACF808B1012071E7206833
:10487000C06840F400602168C8601DE02A49206BD0
:10488000C1632A49206B01642949206BC1642268F5
:1048900002F140013B463246206BFEF791F808B129
:1048A000012056E72068C06840F480502168C86045
:1048B00002E04FF0010B00BF00BF1E492068884294
:1048C0001BD02068B0F1804F17D01B492068884268
:1048D00013D01A49206888420FD0194920688842AD
:1048E0000BD018492068884207D0174920688842B1
:1048F00003D01649206888420DD12068806800F0F6
:104900000708B8F1060F0CD02068006840F00100DD
:104910002168086005E02068006840F00100216817
:104920000860584615E700001F66000899660008F1
:10493000D966000800000140000400400008004063
:10494000000C0040000401400040014000180040FD
:1049500010B5044620680069C0F34000D8B1206853
:10496000C068C0F34000B0B16FF002002168086178
:10497000012020772068806900F0030018B12046EC
:10498000FFF711FE05E0204600F0E0F8204600F0B9
:1049900094F90020207720680069C0F38000D8B126
:1049A0002068C068C0F38000B0B16FF004002168D7
:1049B0000861022020772068806900F4407018B1F7
:1049C0002046FFF7F0FD05E0204600F0BFF8204646
:1049D00000F073F90020207720680069C0F3C00060
:1049E000D8B12068C068C0F3C000B0B16FF0080053
:1049F00021680861042020772068C06900F0030066
:104A000018B12046FFF7CFFD05E0204600F09EF8E4
:104A1000204600F052F90020207720680069C0F39A
:104A20000010D8B12068C068C0F30010B0B16FF0BA
:104A3000100021680861082020772068C06900F410
:104A4000407018B12046FFF7AEFD05E0204600F0AB
:104A50007DF8204600F031F90020207720680069B9
:104A600000F0010058B12068C06800F0010030B1CA
:104A70006FF0010021680861204600F0A5F9206868
:104A80000069C0F3C01058B12068C068C0F3C010FE
:104A900030B16FF08000216808612046FFF7D8FA36
:104AA00020680069C0F3801058B12068C068C0F366
:104AB000801030B16FF0400021680861204600F09E
:104AC000F5F920680069C0F3401058B12068C0684B
:104AD000C0F3401030B16FF020002168086120461B
:104AE000FFF7B7FA10BD000010B586B004461421D8
:104AF00001A8FBF7D0FB1249206888421DD100BFF6
:104B0000002000900F48006840F008000D49086040
:104B10000846006800F00800009000BF00BF4FF496
:104B20004050019002200290002003900490022047
:104B3000059001A90448FEF7FFFC06B010BD000077
:104B40000008004030380240000C024070472DE958
:104B5000F04104460D461646002700BF94F83C007D
:104B6000012802D10220BDE8F081012084F83C0038
:104B700000BF36B1042E1BD0082E31D00C2E5ED1D2
:104B800045E02946206801F0EBFD2068806940F08F
:104B90000800216888612068806920F0040021688D
:104BA000886120688069296908432168886148E034
:104BB0002946206801F00CFE2068806940F40060FE
:104BC000216888612068806920F48060216888619C
:104BD00020688069296940EA01202168886130E005
:104BE0002946206801F032FE2068C06940F00800C4
:104BF0002168C8612068C06920F004002168C8618C
:104C00002068C069296908432168C86119E02946FC
:104C1000206801F057FE2068C06940F400602168F8
:104C2000C8612068C06920F480602168C86120687C
:104C3000C069296940EA01202168C86101E00127B3
:104C400000BF00BF00BF002084F83C0000BF384612
:104C500089E710B504460CB9012010BD94F83D0059
:104C600028B9002084F83C00204600F025F80220F6
:104C700084F83D00211D206801F054FC012084F8D7
:104C8000460000BF84F83E0001213F20015540202E
:104C900001554120015500BF00BF012084F84200AA
:104CA00043200155442001554520015500BF0120F6
:104CB00084F83D000020D0E77047704770B5044687
:104CC0000D4615B994F83E000BE0042D02D13F20AB
:104CD000005D06E0082D02D14020005D01E041208A
:104CE000005D012801D0012070BD1DB9022084F8AB
:104CF0003E000EE0042D03D102213F20015508E0C3
:104D0000082D03D102214020015502E0022141205B
:104D1000015501222946206801F070FC23492068D2
:104D2000884203D022492068884201D1012000E056
:104D3000002028B12068406C40F40040216848649D
:104D40001A49206888421BD02068B0F1804F17D0E4
:104D500018492068884213D01749206888420FD02C
:104D60001649206888420BD011492068884207D034
:104D700013492068884203D01249206888420CD128
:104D80002068806800F00706062E0CD020680068B6
:104D900040F001002168086005E02068006840F0EC
:104DA00001002168086000209EE70000000001402B
:104DB000000401400004004000080040000C0040D6
:104DC00000400140001800401649884228D1164989
:104DD0000968491C144A11600121144A11701249D2
:104DE000097801F0010111B90121114A11700E4930
:104DF00009684FF47A72B1FBF2F302FB131111B997
:104E000001210C4A1170084909686422B1FBF2F3D0
:104E100002FB131121B90121074A1170074A1170D1
:104E2000704700006414002000100020E5110020ED
:104E3000E411002036100020E7110020A413002008
:104E400070B504460D4600BF94F83C00012801D11E
:104E5000022070BD012084F83C0000BF022084F8CD
:104E60003D002946204601F057FD48B1012084F855
:104E70003D0000BF002084F83C0000BF0120E8E7AF
:104E80002068C06820F040002168C8602068C068C1
:104E900020F480402168C860012084F83D0000BFF4
:104EA000002084F83C0000BF00BFD2E77047704785
:104EB000704700002DE9F84F044620680568206817
:104EC000C668206847694FF00009CA4605F00F0917
:104ED000B9F1000F0AD105F0200038B106F020002A
:104EE00020B1204601F0B2FEBDE8F88FB9F1000F05
:104EF0007CD007F0010018B906F49070002875D036
:104F000005F0010030B106F4807018B1206C40F05B
:104F10000100206405F0040030B107F0010018B171
:104F2000206C40F00200206405F0020030B107F070
:104F3000010018B1206C40F00400206405F0080066
:104F400048B106F0200010B907F0010018B1206C3C
:104F500040F008002064206C002846D005F02000B6
:104F600028B106F0200010B1204601F06FFE206845
:104F70004069C0F3801A206C00F0080010B9BAF143
:104F8000000F2DD0204601F01BFE2068406900F084
:104F90004000402820D100BF00BF2168143151E8F3
:104FA000001F21F040002168143141E80002002A6E
:104FB000F3D100BFA06B50B17548A16B0865A06B21
:104FC000FDF753FB88B1A06B016D88470DE02046CB
:104FD000FFF76EFF09E009E02046FFF769FF04E0F4
:104FE0002046FFF765FF002020647DE7206B012845
:104FF00076D105F01000002872D006F010000028CD
:10500000FAD000BF0020009020680068009020685F
:105010004068009000BF00BF2068406900F0400079
:1050200040285ED1A06B006840681FFA80F8B8F194
:10503000000F54D0A08D404551DDA4F82E80A06B08
:10504000C069B0F5807F43D000BF00BF21680C313C
:1050500051E8001F21F4807021680C3141E8000202
:10506000002AF3D100BF00BF00BF2168143151E80E
:10507000001F21F001002168143141E80002002ADC
:10508000F3D100BF00BF00BF2168143151E8001FF9
:1050900021F040002168143141E80002002AF3D1D8
:1050A00000BF202084F83E000020206300BF00BF26
:1050B00021680C3151E8001F21F0100021680C31EB
:1050C00041E80002002AF3D100BFA06BFDF777FA98
:1050D000A08DE28D801A81B22046FFF7E8FE03E73B
:1050E00040E0A08DE18D401A1FFA80F8E08DC0B33A
:1050F000B8F1000F35D000BF00BF21680C3151E876
:10510000001F21F4907021680C3141E80002002A50
:10511000F3D100BF00BF00BF2168143151E8001F68
:1051200021F001002168143141E80002002AF3D186
:1051300000BF202084F83E000020206300BF00BF95
:1051400021680C3151E8001F21F0100021680C315A
:1051500041E80002002AF3D100BF41462046FFF794
:10516000A6FEC1E605F0800030B106F0800018B15F
:10517000204601F020FFB7E605F0400030B106F010
:10518000400018B1204601F051FDADE600BFABE68E
:10519000AD6B000810B504460CB9012010BDA06924
:1051A00000B100E000BF94F83D0028B9002084F869
:1051B0003C00204600F028F8242084F83D002068B8
:1051C000C06820F400502168C860204601F0BAFD94
:1051D0002068006920F490402168086120684069D7
:1051E00020F02A00216848612068C06840F400501F
:1051F0002168C86000202064202084F83D0084F8E5
:105200003E000020CAE7000010B586B00446142115
:1052100001A8FBF740F84C49206888424DD100BFF7
:10522000002000904948006840F480104749086019
:105230000846006800F48010009000BF00BF00BF67
:105240000020009041481038006840F004003F49B9
:10525000103908600846006800F00400009000BFA4
:1052600000BF00BF002000900846006840F0080022
:1052700008600846006800F00800009000BF00BF0A
:1052800088140190022002900020039003200490D3
:105290000820059001A92E48FEF74EF90420019040
:1052A0000220029000200390032004900820059023
:1052B00001A92848FEF740F943E0274920688842C1
:1052C0003FD100BF002000902048001D006840F042
:1052D00010001E49091D08600846006800F0100013
:1052E000009000BF00BF00BF00200090174810389A
:1052F000006840F001001549103908600846006850
:1053000000F00100009000BF00BF4FF4C0600190AA
:1053100002200290002003900320049007200590B3
:1053200001A90E48FEF708F9002202212520FEF708
:1053300095FA2520FEF782FA09220949094800F06A
:1053400013F806B010BD0000005000404038024085
:1053500000080240000C0240001001400000024022
:10536000C47F0020E816002070B504460D4616469E
:1053700094F83E00202816D105B10EB9012070BD69
:1053800000BF94F83C00012801D10220F7E701207A
:1053900084F83C0000BF00202063324629462046A6
:1053A00001F0E6FDEBE70220E9E7000010B5044656
:1053B0000348844203D109220249FFF7D5FF10BDFB
:1053C000E8160020C47F00202DE9F84F04460E4661
:1053D000174699464FF0000A94F83D0020285AD10C
:1053E00006B117B90120BDE8F88F00BF94F83C0062
:1053F000012801D10220F6E7012084F83C0000BF1B
:1054000000202064212084F83D00FEF79DF98246AB
:10541000A784E784A068B0F5805F04D1206910B943
:105420000025B04602E035464FF0000800BF0020DE
:1054300084F83C0000BF1BE0534600228021204638
:10544000CDF8009001F0E7FD08B10320CBE745B9A6
:10545000B8F80000C0F308002168486008F10208AD
:1054600003E02878216848606D1CE08C401EE084D1
:10547000E08C0028E0D15346002240212046CDF8A0
:10548000009001F0C8FD08B10320ACE7202084F8AB
:105490003D000020A7E70220A5E7704700BFFEE718
:1054A00000200449086048600420886000200861EA
:1054B00088617047807F002010B513481349086049
:1054C00003204860002111488160C1604FF4003121
:1054D00001614FF4401141610021017601214176C3
:1054E00081760021C1760121017700214177FCF707
:1054F00066FA08B1FBF7D8FE0448FDF72AF808B1B0
:1055000000BFFEE710BD000000640040CC13002087
:1055100010B51048104908600620486000210E4868
:105520008160C1604FF4003101614FF4401141616D
:10553000002101760121417681760021C176012189
:10554000017700214177FCF73AFA08B1FBF7ACFE8E
:1055500010BD000000680040F413002008B500BF33
:10556000002000901248006840F480001049086054
:105570000846006800F48000009000BF00BF0022D1
:1055800011463A20FEF76AF93A20FEF757F9002251
:1055900011463B20FEF762F93B20FEF74FF900224F
:1055A00011464620FEF75AF94620FEF747F908BD96
:1055B0003038024000B587B0142102A8FAF76BFE1C
:1055C00000BF002001908A48006840F02000884910
:1055D00008600846006800F02000019000BF00BF8E
:1055E00000BF002001900846006840F0800008607D
:1055F0000846006800F08000019000BF00BF00BFB7
:10560000002001900846006840F004000860084649
:10561000006800F00400019000BF00BF00BF002040
:1056200001900846006840F00100086008460068E4
:1056300000F00100019000BF00BF00BF00200190FA
:105640000846006840F0100008600846006800F056
:105650001000019000BF00BF00BF0020019008466D
:10566000006840F0020008600846006800F0020090
:10567000019000BF00BF00BF0020019008460068F5
:1056800040F0080008600846006800F0080001903B
:1056900000BF00BF00BF002001900846006840F036
:1056A000400008600846006800F04000019000BF1C
:1056B00000BF002240F601014E48FEF73FF80022ED
:1056C0004FF403614C48FEF739F800224FF40061B3
:1056D0004A48FEF733F800224FF400614848FEF7CD
:1056E0002DF800220A214748FEF728F80022102151
:1056F0004548FEF723F800224FF400714348FEF7B7
:105700001DF800224FF400413B48FEF717F8032034
:1057100002901220039000200490032005900420A2
:10572000069002A93548FDF707FF40F601000290F8
:105730000120039000200490059002A92D48FDF758
:10574000FBFE4FF4036002900120039000200490C0
:10575000059002A92848FDF7EFFE4FF40060029083
:105760000120039000200490059002A92348FDF732
:10577000E3FE4FF4006002900120039000200490AB
:10578000059002A91E48FDF7D7FE0A2002900120CD
:10579000039000200490059002A91B48FDF7CCFE61
:1057A000102002900120039000200490059002A98F
:1057B0001548FDF7C1FE4FF40070029001200390E0
:1057C00000200490059002A91048FDF7B5FE4FF4A3
:1057D00000400290122003900020049003200590C6
:1057E0000420069002A90448FDF7A6FE07B000BDFC
:1057F000303802400008024000000240001402401D
:105800000010024000040240000C02400018024058
:105810000EB5C02084490870A82048700220887006
:105820000B20C870FF2081490870487088700020E4
:10583000C870C0207E490870A82048700220887077
:105840000120C87005F076FC77480078000676499C
:10585000497840EA01407449897840EA0120724958
:10586000C978084302067048007800066E494978F6
:1058700040EA01406C49897840EA01206A49C978C8
:10588000084300F47F4042EA00226748007800069F
:105890006549497840EA01416348807841EA00203F
:1058A0006149C978084300F47F0042EA10225E484B
:1058B000007801065C48407841EA00415A48807807
:1058C00041EA00205849C978084342EA1060594922
:1058D00008605648007800065449497840EA01407B
:1058E0005249897840EA01205049C97808430206A4
:1058F0004E48007800064D49497840EA01404B493E
:10590000897840EA01204949C978084300F47F407A
:1059100042EA00224548007800064449497840EAB6
:1059200001414248807841EA00204049C978084353
:1059300000F47F0042EA10223C48007801063B4810
:10594000407841EA00413948807841EA00203749EF
:10595000C978084342EA1060374908603448007843
:1059600000063349497840EA01403149897840EAE4
:1059700001202F49C978084302062D480078000607
:105980002B49497840EA01402949897840EA0120B9
:105990002749C978084300F47F4042EA002224489E
:1059A000007800062249497840EA01412048807881
:1059B00041EA00201E49C978084300F47F0042EA0A
:1059C00010221B48007801061948407841EA00413E
:1059D0001748807841EA00201549C978084342EA0F
:1059E000106016490860164816490022134BCDE98D
:1059F00000210290104A0F49134806F0DFFD1248BB
:105A000007F056F8104890F83100C0F3800018B144
:105A10000D4807F093F902E00B4807F04FF80B49E7
:105A2000094807F0B7F80EBD5010002054100020B0
:105A30005810002044100020481000204C10002076
:105A4000D19100089993000814480020CD940008D3
:105A500010B5044803F002FD024803F0E9FC08F029
:105A6000A7FC10BD1448002000B58FB000200B909B
:105A70000C900D900E90142106A8FAF70CFC002053
:105A80000490059000900190029003902D482E49BB
:105A900008605F20486000212B48816044F61F6148
:105AA000C16000210161416180218161FEF72CFB11
:105AB00008B1FBF7F9FB4FF480500B900BA922487B
:105AC000FEF7EAFC08B1FBF7EFFB1F48FEF7DCFD31
:105AD00008B1FBF7E9FB0420069050200790002056
